:020000040800F2
:10000000280E0020950200082D2B000889280008E2
:10001000292B00080D0400087D32000800000000B4
:100020000000000000000000000000003131000866
:10003000B1040008000000002D310008353100082F
:10004000AF020008AF020008AF020008AF020008CC
:10005000AF020008AF020008AF020008AF020008BC
:10006000AF020008AF020008AF020008A5040008B4
:10007000AF020008AF020008AF020008AF0200089C
:10008000AF020008AF020008AF020008AF0200088C
:10009000AF020008AF020008AF020008AF0200087C
:1000A000AF020008AF020008AF020008AF0200086C
:1000B000AF0200084D310008AF020008AF0200088F
:1000C000AF020008AF020008AF020008AF0200084C
:1000D000AF020008AF020008AF020008AF0200083C
:1000E000AF020008AF020008AF020008AF0200082C
:1000F000AF020008AF020008AF020008AF0200081C
:10010000000000000000000000000000AF02000836
:10011000AF020008AF020008AF020008AF020008FB
:10012000AF020008AF020008AF020008AF020008EB
:10013000AF020008AF02000800000000000000004D
:10014000AF020008AF020008AF0200080000000084
:10015000000000000000000000000000000000009F
:100160000000000000000000AF020008AF0200081D
:10017000AF020008000000000000000000000000C6
:1001800000000000AF02000800F002F800F072F872
:1001900014A696E8000CB244B344DA4501D100F04D
:1001A00069F8BAE80F000FA696E83000A5EB040541
:1001B00004EB0607AAEB0704A7F101074FEA1515A0
:1001C0004FEA3414A4F10104AC4201D300F052F818
:1001D00013F0010F18BFFB1A43F0010300F001F800
:1001E000DBE7184708370000283700000A444FF0C3
:1001F000000C10F8013B13F0070408BF10F8014B86
:100200001D1108BF10F8015B641E05D010F8016BCA
:10021000641E01F8016BF9D113F0080F1EBF10F82E
:10022000014BAD1C0C1B09D16D1E58BF01F801CB51
:10023000FAD505E014F8016B01F8016B6D1EF9D5D4
:100240009142D6D37047000070470000002300247D
:1002500000250026103A28BF78C1FBD8520728BFD6
:1002600030C148BF0B6070471FB503F01AFB1FBDBC
:1002700010B510BD00F058F81146FFF7F5FF02F079
:10028000FFFF00F076F803B4FFF7F2FF03BC00F0C5
:100290007DF800000948804709480047FEE7FEE76F
:1002A000FEE7FEE7FEE7FEE7FEE7FEE7FEE7FEE726
:1002B00004480549054A064B7047000039310008DB
:1002C0008901000828080020280E0020280A0020A4
:1002D000280A00204FF0000200B5134694469646C7
:1002E000203922BFA0E80C50A0E80C50B1F1200149
:1002F000BFF4F7AF090728BFA0E80C5048BF0CC0F7
:100300005DF804EB890028BF40F8042B08BF704754
:1003100048BF20F8022B11F0804F18BF00F8012BC6
:100320007047704770477047754600F02BF8AE462F
:1003300005006946534620F00700854618B020B5F1
:10034000FFF7B6FFBDE820404FF000064FF0000772
:100350004FF000084FF0000BAC46ACE8C009ACE829
:10036000C009ACE8C009ACE8C00921F007018D461E
:10037000704710B50446AFF300802046BDE810403A
:10038000FFF781BF00487047480600200149182048
:10039000ABBEFEE726000200704700000146406A3F
:1003A000026C12F0500F03D0806B026B08461047AE
:1003B0000168026C42F400720264C96811F4406F73
:1003C00002D000F089BB00BF417E0029F9D1016C49
:1003D00021F480710164016CC90448BF00F07CBB4A
:1003E000016C41F00101016400F076BB406A016CD0
:1003F00041F040010164416C41F00401416400F0AE
:100400006FBB0000406A00F069BB0000FEE700001F
:1004100010B58AB040F2187400200121C2F2000425
:100420000690CDE90400CDE90200CDE90000CDE958
:10043000071109906946204600F070FE204600F042
:1004400091FF2046022100F0FDFD0AB010BD000022
:1004500080B58AB0138801911BBA4FEA134C5388B8
:10046000ADF81CC01BBA4FEA134C938800211BBA8D
:100470001B0CADF82030D388CDE9031108211BBA3D
:10048000059101A91B0C01F11802ADF8223009AB4E
:10049000ADF81EC000F0EEFD002818BF01200AB024
:1004A00080BD000040F24070C2F2000000F088BF42
:1004B00070470000EFF3108072B600BFFEE7000047
:1004C000F0B581B0044690F83C00012802D102202A
:1004D00001B0F0BD0D460127216884F83C708868A2
:1004E00000F00300012813D10868C00710D0886805
:1004F00000F00D00012859D1886840F002008860A2
:100500000320086001F044F921688A68D2073FD1CE
:10051000264646F8407F8868012D20F0804088609C
:1005200003D1886840F080408860886840F00040CF
:10053000886001F02DF921688968B1F1FF3F0BDD7A
:10054000306820F00301002041F0010131600021FA
:1005500084F83C1001B0F0BD054602E08068002838
:10056000EED501F015F9411B20680B29F6D38168FF
:10057000B1F1FF3FF2DC306840F0100020F00200E3
:1005800030600120002184F83C1001B0F0BD00BFB4
:10059000064602E08868C007BAD001F0F9F8801B6F
:1005A00021680328F6D38868C007F3D0206C26465C
:1005B00040F01000206456F8441F0120C4E70000FA
:1005C000F0B5036803F130421D0645EA1224052CFC
:1005D0004FF001022AD840F2001CC5F2000CE6469A
:1005E000DFE804F00E042424080C00BF4FF0A04EF6
:1005F00006E000BF0CF5806E02E000BF0CF5407E07
:1006000090F83C20012A04BF0220F0BD9A685207EE
:100610005CBFDEF808205FEA427209D5016C012256
:1006200041F020010164002180F83C101046F0BD2B
:100630004FF4C1620C68634508BF4FF40272B3F116
:10064000A04F08BF4FF402725CF8025025F46045D9
:1006500014B34E6890F8307046EA473635434CF88C
:1006600002509D6805F00305012D02D11B68DB07D0
:100670002DD1DEF8083003F00303012B03D1DEF89F
:100680000030DB0723D15CF8023040F61F77896821
:10069000BB431943214318E04CF80250996801F01C
:1006A0000301012902D11968C90710D1DEF8081029
:1006B00001F00301012903D1DEF80010C90706D1BA
:1006C0005CF8021040F61F7399434CF802100022A8
:1006D000A9E700002DE9F04181B00022009290F8D6
:1006E0003C20012A04D10221084601B0BDE8F08176
:1006F0000123026880F83C3093685B0700F1C881F1
:100700004F68042F07EB470312D8176B5E001F23B7
:10071000D1F8008003FA06F5AF4308FA06F637432E
:100720001763976817F00C0F40F0D18042E000BFCC
:10073000092F15D86FF01D06576B06EB43061F23D4
:10074000D1F8008003FA06F5AF4308FA06F63743FE
:100750005763976817F00C0F40F0B9802AE000BF8C
:100760000E2F4FEA430313D8976BA3F13C061F23C8
:10077000D1F8008003FA06F5AF4308FA06F63743CE
:100780009763976817F00C0F40F0A18012E000BF4C
:10079000D76BA3F15A061F23D1F8008003FA06F5A0
:1007A000AF4308FA06F63743D763976817F00C0F84
:1007B00040F08D8008EB48071426B8F1090F88BF78
:1007C0001E3F88BF1826955907248B68BC40A54357
:1007D000BB402B439351D1E90437D6685D1E032DEE
:1007E00016D8062303EA960307FA03F6DFE805F0B6
:1007F00002303E4C136E4FF20007C0F2FF373B4011
:1008000043EA8863334343F0004313665FE000BF6D
:10081000136E4FEA886603F0F843B34240D1136E7B
:1008200023F000431366536E03F0F843B3423CD009
:10083000936E03F0F843B34240D1936E23F000432C
:100840009366D36E03F0F843B34240D13BE000BF60
:10085000536E4FF20007C0F2FF373B4043EA886314
:10086000334343F00043536631E000BF936E4FF2D1
:100870000007C0F2FF373B4043EA8863334343F04D
:100880000043936623E000BFD36E4FF20007C0F22F
:10089000FF373B4043EA8863334343F0004315E0AE
:1008A000536E03F0F843B342C2D1536E23F00043BA
:1008B0005366936E03F0F843B342BED0D36E03F099
:1008C000F843B34203D1D36E23F00043D366936859
:1008D00003F00303012B03D11368DB0740F0F4801E
:1008E000CB6840F2083C0127C5F2000C012B07FA47
:1008F00008F715D1D2F8B030B8F10A0F43EA070370
:1009000008EB4807C2F8B0302CD393691B3F072689
:100910008968BE40B343B9401943916105E000BF07
:10092000D2F8B010B943C2F8B01002F13041B1FAB8
:1009300081F14FEA511EA2EB0C0101F50271B1FAEF
:1009400081F14909B8F1100F4EEA010423D1614643
:10095000002C08BF01F580610968090200F1B4802C
:10096000012132E0536938258968FE1C05FA07F732
:10097000BB43B1401943516102F13041B1FA81F1F9
:100980004FEA511EA2EB0C0101F50271B1FA81F19F
:1009900049094EEA0104B8F1120F0BD0B8F1110F5A
:1009A00040F092806146002C08BF01F58061096823
:1009B000C90106E06146002C08BF01F580610968A5
:1009C00049024FF0000100F1808002F1304315062A
:1009D00045EA1327052F0BD8ACF502750026DFE892
:1009E00007F0110307070B0F4FF0A0450AE000BF07
:1009F0000025012606E000BF0CF5FC7502E000BFF3
:100A00000CF1F805936803F00303012B02D112687F
:100A1000D2073DD13EB9AA6802F00302012A02D1F1
:100A20002A68D20734D1C9B3BEF1000F4CD0DCF82C
:100A300000104DF6836241F40001CCF8001040F242
:100A4000F851C2F200010968C4F21B32A1FB021284
:100A5000910C01EB8101490000910099A1B300992B
:100A600001390091009979B30099013900910099F9
:100A700051B3009901390091009929B300990139C6
:100A80000091009900294FF00001E8D11DE000BF5E
:100A9000016C41F020010164012116E0B8F1110F51
:100AA00008D1BEF1000F0FD0DCF8001041F08071CA
:100AB00008E000BF002C08BF0CF5806CDCF80010CB
:100AC00041F48001CCF800100021002280F83C2085
:100AD000084601B0BDE8F081704700007047000093
:100AE00070470000B0B582B00446002001903CB1D0
:100AF000206CC00608D4206C70B32168002542E148
:100B0000012002B0B0BD00BF0025206C00F0100035
:100B1000401940F04A8120688168490700F1458109
:100B2000216C00F1304E21F4817102312164010603
:100B300041EA1E2140F2001C0529C5F2000C65D8CF
:100B400000256346DFE801F06C046262666A00BF5C
:100B50004FF0A04364E000BF002520466564C4E96F
:100B6000125584F83C5000F047F921688868C000AD
:100B700000F10981886800F00300012803D10868AA
:100B8000C00740F0D580206CC006B7D4206C41F27D
:100B9000021290430230206488684DF6836220F090
:100BA000405088608868C4F21B3240F080508860F2
:100BB00040F2F850C2F2000000680025A0FB0202DB
:100BC000900C00EB8000400001900198002800F09C
:100BD000DA80019801380190019800283FF48EAF27
:100BE000019801380190019800283FF487AF0198DF
:100BF00001380190019800283FF480AF0198013836
:100C0000019001980028E4D1BDE000BF0023012538
:100C100006E000BF0CF5806302E000BF0CF54073F6
:100C2000816801F00301012902D10168C9071ED1C1
:100C30003DB9996801F00301012902D11968C9077A
:100C400015D1A0EB0C01BEFA8EF2B1FA81F1520976
:100C5000490911434FF4C16118BF4FF402715CF8A8
:100C60000120636822F440321A434CF80120616B82
:100C7000627E0129D4E902154FEA423341EA0501B7
:100C800094F8205003F5805308BF5303012D41EA27
:100C900003011FD0A26A012A36D1826812F00C0F1C
:100CA00000F09C80C2684CF20703CFF6F0731A4044
:100CB0001143C1602169026B012922F00F0102D1A9
:100CC000E269013A11430163002001216FF0030240
:100CD00060646EE072B1226C42F0200222F00202E7
:100CE0002264626C42F001026264A26A012AD4D0DA
:100CF0000AE000BF626A0023CFF6FF7303EB4242B3
:100D00001143A26A012AC8D040F2005540F4807312
:100D1000C5F20005AB4259D1B2F5807F50D0B2F593
:100D2000E07F51D0B2F5307F08BF4FF4E0724DE064
:100D3000886800F00D0001281BD1886840F002008F
:100D400088600320086000F023FD21688A68D207CC
:100D50003FF419AF054603E08868C0073FF413AFBE
:100D600000F016FD401B21680328F5D38868C007F2
:100D7000F2D0206C012540F010002064606C40F03F
:100D800001006064206C8868C00003D5886880001A
:100D90007FF5BBAE206C40F0100020F00200206414
:100DA000606C40F001006064206C012010216FF045
:100DB0001202236C1A401143216402B0B0BD00BF7F
:100DC0004FF4307202E000BF4FF48072E36A1A43BE
:100DD0001143826812F00C0F7FF464AFC26844F2D2
:100DE00002039A43C260227E94F83030920342EAB2
:100DF0004302114356E7000070B586B00446006810
:100E00000026B0F1A04F0596049601D006B070BD43
:100E100041F21400C4F20200016841F08051016007
:100E2000016801F0805100910099016841F400319E
:100E30000160006801A900F40030009000980520CE
:100E400001900320CDE902064FF0904000F0BCFB7A
:100E500040F240750820C2F20005C4F202004FF4CF
:100E60008072C5E9000605F1100080214FF480630F
:100E70004FF0200C4FF4405E80E80C502846C5E946
:100E8000026100F0EFFA002818BFFFF713FBA5631B
:100E90006C6206B070BD00002DE9F04381B00368BC
:100EA00004469868400703D494F83C00012805D113
:100EB0000227384601B0BDE8F08300BF40F2083891
:100EC000012040F20019C5F2000884F83C0043F408
:100ED0008070C5F20009484540461CBF40F20870CA
:100EE000C5F20000006815460E46C00615D1986888
:100EF00000F00300012802D11868C00730D19868BB
:100F00003F21C8F20001084210D0206C40F01000D0
:100F10002064606C40F0010060640020012784F8C8
:100F20003C00384601B0BDE8F08300BF986840F04F
:100F30000100986000F02CFC23681968C9070FD1E4
:100F4000074602E01868C0070AD100F021FCC01B68
:100F500023680328F6D31868C007F3D1D5E700BF8C
:100F6000206C40F60171884300F58070206443F4E2
:100F70008070484540461CBF40F20870C5F2000032
:100F80000068C00607D040F2004143F48060C5F21B
:100F90000001884242D1206C20F480102064D8687F
:100FA000800104D5206C012161F30D302064206C98
:100FB00040F29D31C0044FF0000044BF606C20F04F
:100FC00006006064A06BC0F6000140F2054240F2EA
:100FD000ED3C00F1280E0027C0F60002C0F6000C20
:100FE0008EE806101C2184F83C701960596832465E
:100FF00041F010015960D96841F00101D96003F155
:1010000040012B4600F07CFA2068816841F0040121
:101010008160384601B0BDE8F08300BF206CA8F5C0
:10102000027140F480108B42206403D0D8F8040190
:10103000B6E700BF4FF60450CFF6FF7058F8000037
:10104000AEE7000090F82020013A012A08D8006895
:1010500000F114020020136819431160704700BFAB
:1010600000F1240201204FF480211368194311601C
:101070007047000010B590F820E0D0F800C0AEF145
:10108000010EBEF1010FDCF808E011D81EF0E05FA0
:1010900018D0CEF3016E012000FA0EF018608B68B4
:1010A000D3B14868CC6844EAC000034318E000BFED
:1010B00000F1240101204FF480220B681A430A60DA
:1010C00010BD00BF00F1240101204FF400120B6895
:1010D0001A430A6010BD00BF0868CB6843EA40535A
:1010E0000CEB0E10C0F880310B69C0F88431097D1B
:1010F000012905D100F5C2710B6843F480730B60C0
:101100005168C0F88C11126800F5C071C0F88821D0
:10111000002001220B681A430A6010BD026890F893
:101120002030013B012B29D8B0B5D2F800020123B1
:1011300040F00100C2F80002D1F814E0CC690EF0D2
:101140001F0003FA00F0D2F81C326FEA000C834350
:10115000012CC2F81C3217D06CBBD2F80C3203EA57
:101160000C03C2F80C32CB688C8844EA034302EBD0
:10117000CE04C4F840320B4615E000BF416A41F48A
:101180008021416201207047D2F80C320343C2F83B
:101190000C320B688C8844EA034302EBCE04C4F89B
:1011A000403201F10C038C681B8843EA044302EBD4
:1011B000CE04C4F84432D2F804328D6943EA000404
:1011C000D1F810E0096A002D08BF03EA0C04C2F848
:1011D0000442D2F81432BEF1000F43EA000408BF03
:1011E00003EA0C040129C2F8144204D1D2F81C12FB
:1011F0000843C2F81C02D2F8000220F00100C2F835
:1012000000020020B0BD0000002804BF012070478C
:10121000B0B5044690F8200010B9204600F06EF8F2
:101220002068016841F00101016000F0B1FA054653
:1012300020684168C90705D100F0AAFA401B0B28B5
:10124000F6D310E0016821F00201016000F0A0FA7D
:10125000054600BF2068416889070DD500F098FA5F
:10126000401B0B28F6D3606A052140F40030606211
:10127000012084F82010B0BD217E0268012922F0EF
:10128000800208BF80320260617E0268012922F07C
:10129000400208BF40320260A17E0268012922F0AC
:1012A000200208BF20320260E17E0268012922F09C
:1012B000100218BF10320260217F0268012922F05B
:1012C000080208BF08320260617F0268012922F02B
:1012D000040208BF04320260D4E901C2D4E9033534
:1012E00061691A432A431143ACF101021143C16100
:1012F00000200121606284F82010B0BD006846F231
:101300000041C4F20001884218BF704780B586B022
:1013100041F21400C4F20200816841F00071816062
:10132000816801F0007101910199016841F4003177
:101330000160006801A900F40030019001984FF4A9
:10134000C0500190022002900020039003200490DE
:10135000092005904FF0904000F036F906B0BDE846
:1013600080407047B0B5044690F8200001281DD198
:10137000022084F820002068016821F0010101604A
:1013800000F006FA054600BF20684068C00713D089
:1013900000F0FEF9401B0B28F6D3606A40F40030E1
:1013A0006062052084F820000120B0BD606A40F42E
:1013B000002060620120B0BD00206062B0BD00006E
:1013C000B0B5D0E90FC30268DCF800100424D2F8ED
:1013D00000E09C400C4218BF1EF0040520D10224FE
:1013E0009C400C4218BF1EF0020527D1D9400907C6
:1013F00022D51EF0080108BFB0BD116821F00E0112
:101400001160012101FA03F2CCF804208163016B21
:101410004FF48072028479B1BDE8B040084700BF44
:101420001168890603D4116821F004011160CCF819
:101430000440C16A0029EFD1B0BD00BF1168890620
:1014400006D4116821F00A011160012180F82110F1
:10145000CCF80440816A0022002980F82020DBD1EA
:10146000EAE70000002804BF012070472DE9F0479B
:1014700040F2000C0168C4F2020C4FF6F8320CF591
:101480008163CBF6FD72994238BF02F580624CF65B
:10149000CD430A44CCF6CC43A2FB032E00F1040A50
:1014A00000F110089AE8040698E8E0010B6843F69A
:1014B000F07423EA040342EA030242EA090242EA20
:1014C0000A0242EA050242EA060242EA070242EA48
:1014D00008020A600CF580616FF003023CBF002136
:1014E000C4F2020102EA9E02C0E90F1200214FF489
:1014F000807281630284BDE8F047084670470000AF
:1015000090F820C0BCF1010F04BF02207047F0B575
:1015100090F821C04FF0010EBCF1010F80F820E0DF
:1015200026D14FF0020C80F821C04FF0000CC0F81B
:1015300038C0D0E900C4C56AC66BDCF80070102C56
:1015400027F00107CCF80070006C0EFA00F0706014
:101550000846CCF8043004BF10460A46CCF8080010
:10156000CCF80C20DCF8000045B140F00E000DE096
:10157000002180F820100220F0BD00BF40F00A00DA
:10158000CCF80000DCF8000020F00400CCF80000EB
:10159000DCF8000040F00100CCF800000020F0BDB5
:1015A000B0B5044600F0F4F8054640F20000C2F27F
:1015B00000000078611C18BF044400BF00F0E8F888
:1015C000401BA042FAD3B0BD2DE9F04F82B00D68A8
:1015D000002D00F0C58000F13847860546EA9727C0
:1015E00041F20006C4F60006052240F2004EB04269
:1015F00008BF0422C4F2010E042F38BF3A464FF050
:10160000000C012400270026009209E00D68013635
:1016100035FA06F207F102070CF1040C00F0A08085
:1016200004FA06FB15EA0B08F0D0D1F804A0032356
:101630000AF003056A1EBB40012A6FEA03090FD8AE
:101640008268CB6802EA0902BB401A4382604268A2
:10165000CAF3001322EA0B02B3401A43426003E0CC
:10166000032D01D103251FE0C2688B6802EA09023D
:10167000BB401A43022DC26016D16FF0030202EA8A
:10168000560202440CF01C050F23D2F820A003FAE6
:1016900005FB0B692AEA0B0AAB4043EA0A03136213
:1016A000D1F804A00AF00305026805FA07F302EA7C
:1016B00009021A431AF4403F0260A7D041F218030E
:1016C000C4F202031A684FF6084A42F001021A6097
:1016D0001A68CFF6FF7A02F001020192019A26F011
:1016E0000302724452F80A900CF00C050F23009C80
:1016F000AB4029EA030304FA05F52B4342F80A300C
:10170000DEF808204B6842EA080540F20C49DC028A
:1017100058BF22EA0805CEF80850C4F20109D9F8EA
:1017200000209D0242EA080458BF22EA0804C9F8D2
:101730000040DEF804209D0342EA080458BF22EA74
:101740000804CEF80440DEF80020DB0342EA080477
:1017500058BF22EA0804CEF80040012456E700BF33
:1017600002B0BDE8F08F00000069084018BF0120FA
:1017700070470000426902EA0103914341EA0341D4
:10178000816170471823002A08BF2823C150704781
:1017900040F62400C2F200000068704790F8412033
:1017A000202A03D190F84020012A01D1022070475D
:1017B000242280F841200268136823F0010313609B
:1017C000136823F480531360136819431160116880
:1017D00041F001011160202180F84110002180F8C2
:1017E000401008467047000090F84120202A03D19D
:1017F00090F84020012A01D102207047242280F86D
:1018000041200268136823F001031360136823F476
:10181000706343EA01211160116841F00101116018
:10182000202180F84110002180F8401008467047C0
:10183000002804BF0120704710B5044690F841000D
:1018400028B9002084F84000204600F049F8242000
:1018500084F8410094E80910E2680168012A21F047
:101860000101016023F070610161816821F4004190
:10187000816003D14CF40041816009E04CF40441E3
:10188000022A816004D1416841F4006103E000BF95
:10189000416821F400614160416804F1100C41F09D
:1018A000007141F400414160C16821F40041C16010
:1018B0009CE80E10114341EA0321C160216A41EA0C
:1018C0000C010160016841F001010160002020214C
:1018D000606484F84110206384F8420010BD000069
:1018E000006845F20041C4F20001884218BF704709
:1018F00010B586B041F21404C4F20204206801A9B4
:1019000040F480202060206800F48020019001983D
:10191000C020019012200290002003900320049028
:101920000420059040F20040C4F60000FFF74CFE92
:10193000A06840F40010A060A06800F400100090BF
:10194000009806B0BDE810407047000040F200006B
:1019500040F62401C2F20000C2F2000100780A68D9
:10196000104408607047000080B542F20000C4F2E5
:101970000200016841F010010160032000F084F8CA
:101980000F2000F005F800F027F8002080BD0000CF
:1019900070B540F20006C2F2000640F2F85132780B
:1019A000C2F200014FF47A730968B3FBF2F2044605
:1019B000B1FBF2F1084600F023FC0F2C4FF00105BB
:1019C00008D838B94FF0FF3021460022002500F03A
:1019D0002FF87460284670BD82B041F21800C4F23E
:1019E0000200016841F001010160016801F001019C
:1019F00001910199416841F080514160406800F0D7
:101A000080500090009802B070470000002848BF46
:101A1000704700F01F01012202FA01F11C2202EAC4
:101A2000D0004EF20012CEF200028150704700004A
:101A300010B54EF60C5CCEF2000CDCF80030C3F3AF
:101A4000022E8EF00704042C28BF0424BEF10303E9
:101A50004FF0FF3E0EFA04F438BF0023A143994033
:101A60000EFA03F39A43114300F00F0200F16043B2
:101A70000901043A03F564436244002848BF02F1B7
:101A80000C03197010BD00004EF60C51CEF200018F
:101A90000A684FF6FF031A4060F30A2242F08060A2
:101AA00040F0FD70086070472DE9F04182B00446B7
:101AB000807841F23006C007C4F2020656D056F8CC
:101AC000140C5FEAC0080BD456F8140C40F0805098
:101AD00046F8140C56F8140C00F080500190019850
:101AE00047F20007C4F200073868C00512D438680E
:101AF00040F480703860FFF74BFE05463868C0053B
:101B000008D4FFF745FE401B6428F7D9032002B034
:101B1000BDE8F08156F8100C10F4407015D06168E3
:101B200001F44071884210D056F8100C40F2404247
:101B3000C4F24222012320F4407113600023C00745
:101B4000136046F8101C40F0A18056F8100C616834
:101B500020F440700843B8F1000F46F8100C05D48B
:101B600056F8140C20F0805046F8140C2068C10779
:101B700022D1810728D441072ED4810634D4810391
:101B80003AD4410642D4010748D4C1064ED4810557
:101B900054D401065CD4C10564D4C1046CD480045F
:101BA00005D53068616B20F4007008433060002078
:101BB00002B0BDE8F08100BF3168A26821F00301E6
:101BC000114331608107D6D53168E26821F4403194
:101BD000114331604107D0D53168226921F4402199
:101BE000114331608106CAD53168E26921F01001E4
:101BF000114331608103C4D556F82C1CA26B21F42B
:101C00008001114346F82C1C4106BCD53168226A7C
:101C100021F02001114331600107B6D531686269B6
:101C200021F4401111433160C106B0D53168A26979
:101C300021F44001114331608105AAD556F82C1CCE
:101C4000E26A21F40001114346F82C1C0106A2D5DA
:101C500056F8041C626A21F4F871114346F8041C1A
:101C6000C1059AD556F8041CA26A21F47851114393
:101C700046F8041CC10492D53168226B21F48071AE
:101C80001143316080048CD491E700BFFFF780FDE1
:101C9000054641F2883700BF56F8100C80073FF523
:101CA00054AFFFF775FD401BB8424FF00300F3D966
:101CB0007EE70000002804BF012070472DE9F043B3
:101CC00081B042F20008C4F202080446D8F80000CD
:101CD0000D4600F0070088420CD2D8F8000020F032
:101CE00007002843C8F80000D8F8000000F00700FB
:101CF000A8425ED1206841F204098107C4F20209BA
:101D000007D5D9F80010A26821F0F0011143C9F8F5
:101D10000010C00744D1D8F8000000F00700A84226
:101D20000CD9D8F8000020F007002843C8F80000BC
:101D3000D8F8000000F00700A8423AD12068410717
:101D400007D5D9F80010E26821F4E0611143C9F821
:101D50000010000708D5D9F80000216920F4605070
:101D600040EAC100C9F80000D9F8002002F00C00D8
:101D7000082841F20020C0F27A0051D143F6CC038A
:101D8000C2F38341C0F60003595CD9F82830D2036E
:101D90003CD440F60010C0F23D00484340E000BF94
:101DA000606802280AD001282AD159F8041C890346
:101DB00008D4012001B0BDE8F08300BF59F8041C2D
:101DC0008901F6D5D9F8001021F003010843C9F8BC
:101DD0000000FFF7DDFC064641F28837D9F8000025
:101DE000616800F00C00B0EB810F94D0FFF7D0FCDD
:101DF000801BB842F2D9032001B0BDE8F08300BFD8
:101E000059F8041C8907D4D5DCE700BF03F00F02A2
:101E100043F6DC03C0F600039A5CB0FBF2F04843E3
:101E2000D9F8001043F6BC02C1F30311C0F600025A
:101E3000515C40F2F85220FA01F140F20400C2F283
:101E400000000068C2F200021160FFF7A1FD00204F
:101E500001B0BDE8F0830000002804BF01207047F6
:101E60002DE9F04182B00446007841F20006C00737
:101E7000C4F202060CD0706800F00C00042840F098
:101E80007F803068800303D56068002800F03481CB
:101E9000207880071BD5706810F00C0F09D070688F
:101EA00000F00C00082840F09F807068C00300F12B
:101EB0009B803068800703D52069012840F01C8191
:101EC0003068616920F0F80040EAC1003060207895
:101ED000000713D4207840072AD4E569002D00F0CC
:101EE0000681706800F00C00082840F0C180012DC8
:101EF00040F0F280012002B0BDE8F081A069002826
:101F000000F09E800020C4F242200121C0F880141D
:101F1000FFF73EFC054600BF706A8007DAD4FFF782
:101F200037FC401B0228F7D9032002B0BDE8F0813E
:101F3000F0695FEAC00808D4F06940F08050F061B1
:101F4000F06900F080500190019847F20007C4F258
:101F500000073868C00561D4386840F48070386084
:101F6000FFF716FC054600BF3868C00556D4FFF7DA
:101F70000FFC401B6428F7D9032002B0BDE8F081B4
:101F8000706800F00C00082803D17068C0033FF5AA
:101F900078AF6068B0F5A02F00F0F080B0F5803F1A
:101FA00000F0F080002840F0F180306820F48030AC
:101FB0003060306820F480203060F06AA16820F042
:101FC0000F000843F062FFF7E3FB0546306880032B
:101FD0007FF55EAFFFF7DCFB401B64284FF003008A
:101FE000F4D902B0BDE8F0812069002840F2000079
:101FF000C4F242205ED001210160FFF7C9FB054613
:10200000306880073FF55CAFFFF7C2FB401B02283A
:10201000F6D9032002B0BDE8F08100BFE0680028D7
:102020006ED0052800F08680012800F08780306A95
:1020300020F001003062306A20F0040081E000BF2F
:102040000020C4F242200021C0F88014FFF7A0FB5A
:10205000054600BF706A80077FF53CAFFFF798FB2D
:10206000401B0228F6D9032002B0BDE8F08100BF72
:102070000027C4F2422700203866FFF789FB022DB3
:1020800005460BD13068800140F1A080FFF780FB4E
:10209000401B02284FF00300F4D9A2E7306880010A
:1020A00025D5FFF775FB401B02284FF00300F5D93B
:1020B00097E700BF00210160FFF76AFB054600BFFC
:1020C000306880077FF503AFFFF762FB401B0228F3
:1020D0004FF00300F4D984E77068216A00F480327D
:1020E0008A4209D1616A00F47010884204D100204C
:1020F00002B0BDE8F08100BF012002B0BDE8F08170
:10210000306A20F001003062306A20F00400306252
:10211000FFF73EFB054641F2883700BF306A800773
:1021200022D5FFF735FB401BB8424FF00300F5D92D
:1021300057E700BF306A40F004003062306A40F078
:1021400001003062FFF724FB054641F2883700BFEB
:10215000306A800708D4FFF71BFB401BB842F7D951
:10216000032002B0BDE8F081B8F1000F3FF5B5AE35
:10217000F06920F08050F061AFE600BF306840F4B5
:1021800080203060306840F4803006E0306820F411
:1021900080303060306820F480203060F06AA168C0
:1021A00020F00F000843F062FFF7F2FA054600BF87
:1021B000306880033FF56CAEFFF7EAFA401B6428F5
:1021C000F6D9032002B0BDE8F08100BF7068D4E901
:1021D000081220F474101043084370600120386620
:1021E000FFF7D6FA044600BF306880013FF57FAFA5
:1021F000FFF7CEFA001B02284FF00300F4D9F0E6F7
:10220000411E0020B0EB116F1CBF012070474EF241
:102210001002CEF2000251604EF62351CEF20001C0
:10222000F0230B7007219060116070477047000029
:10223000704700007047000090F83C20012A4FF0E2
:10224000020248D0B0B580F83D20026843F2004C4D
:1022500054689368C4F2010C42F6004E6245C4F221
:10226000010E01D0724503D14D6824F470042C4353
:102270000D6824F070042C4342F6FF35C4F20105CA
:10228000AA42546010DCB2F1804F17D040F20045F2
:10229000C4F20005AA4211D040F60005C4F20005C0
:1022A000AA420BD00FE000BF724507D044F20005F0
:1022B000C4F20105AA4201D0624504D1896823F025
:1022C0008003194391600121002280F83D1080F8BD
:1022D0003C20BDE8B040104670470000002804BF15
:1022E0000120704710B5044690F83D0028B9002041
:1022F00084F83C00204600F023F8022084F83D00DA
:102300002068211D00F028FF012084F8480084F88F
:102310003E0084F83F0084F8400084F8410084F8CF
:10232000420084F8430084F8440084F8450084F8AF
:10233000460084F8470084F83D00002010BD0000EE
:10234000006840F20041C4F20001884218BF7047A3
:1023500080B582B041F21C00C4F202000168002284
:1023600041F0020101600068002100F002000190CC
:1023700001981D20FFF75CFB1D2002B0BDE88040E6
:10238000FFF744BB90F83D1001291DD1022180F8D0
:102390003D10016842F6FF32C868C4F20102914262
:1023A00040F00100C86011DCB1F1804F20D040F254
:1023B0000040C4F2000081421AD040F60000C4F28E
:1023C0000000814214D020E00120704742F6004016
:1023D000C4F2010081420BD044F20000C4F20100BB
:1023E000814205D043F20040C4F2010081420CD189
:1023F00088680722C0F201020240062A4FF000005E
:10240000E3D0B2F5803F08BF7047086840F0010094
:10241000086000207047000090F83C20012A4FF02F
:10242000020200F0C58080B580F83D20D0F800C0E1
:102430008822DCF80830CFF6FE721A40CCF808206B
:102440000B684F2B28DC1F2B44DD202B45D0302B75
:1024500043D0402B40F0AE80D1F804E0C968DCF8EE
:102460002030DCF8202022F00102CCF82020DCF81B
:10247000182022F0F00242EA011123F00A0242EA97
:102480000E02CCF81810CCF82020DCF8081041F02F
:10249000470121F0300180E06F2B27DDB3F5005FAD
:1024A00048D0B3F5805F7AD0702B40F08380D1E9BB
:1024B00001E3C968DCF8082043EA0E0322F47F42F6
:1024C00043EA01211143CCF80810DCF8081041F070
:1024D000770162E00BB1102B6CD1DCF8081021F011
:1024E0007001194341F0070157E000BF502B35D070
:1024F000602B5FD1D1F804E0C968DCF82030DCF84B
:10250000202022F01002CCF82020DCF8182022F441
:10251000704242EA013123F0A00242EA0E12CCF8E6
:102520001810CCF82020DCF8081041F0670121F0E9
:10253000100132E0D1E901E3C968DCF8082043EA80
:102540000E0322F47F4243EA01211143CCF8081024
:10255000DCF8081041F480411FE000BFD1F804E02E
:10256000C968DCF82030DCF8202022F00102CCF829
:102570002020DCF8182022F0F00242EA011123F0BA
:102580000A0242EA0E02CCF81810CCF82020DCF83F
:10259000081041F0570121F02001CCF8081000226A
:1025A000012180F83D10002180F83C10BDE88040FA
:1025B000104670470122F3E770470000F0B581B084
:1025C00004460068C5680669B10717D515F0020111
:1025D00014D06FF002010161012121778069800729
:1025E00004D02046FFF7E8FF06E000BF204600F0D9
:1025F0009BF8204600F09AF800202077700719D544
:1026000015F0040016D020686FF00401016102216A
:102610002177806910F4407F04D02046FFF7CCFF7B
:1026200006E000BF204600F07FF8204600F07EF86C
:1026300000202077300717D515F0080014D0206847
:102640006FF00801016104212177C069800703D080
:102650002046FFF7B1FF05E0204600F065F8204670
:1026600000F064F800202077F00619D515F010006E
:1026700016D020686FF01001016108212177C06930
:1026800010F4407F04D02046FFF796FF06E000BF1D
:10269000204600F049F8204600F048F80020207756
:1026A000F00718BF15F0010004D1300605F08007CF
:1026B0000BD412E020686FF001010161204600F0A8
:1026C00037F8300605F0800707D537B120686FF07E
:1026D000800101612046FFF7ABFDF00507D537B15A
:1026E00020686FF4807101612046FFF79FFD70063E
:1026F00009D515F0400006D020686FF04001016157
:10270000204600F0BFF8B0060CD515F0200009D027
:1027100021686FF0200220460A6101B0BDE8F04058
:10272000FFF788BD01B0F0BD7047000070470000A2
:10273000006840F20041C4F20001884218BF7047AF
:1027400070B540F2FC50C2F200008189038AC28950
:10275000448A1944838A2244C48A1944038B22443C
:10276000448B1944838B2244C48B1944038C224428
:10277000448C1944838C2244C48C1944038D224414
:10278000448D1944838D2244C48D1944038E224400
:10279000448E19444CF6CD43CCF6CC432244A1FBE5
:1027A000034CA2FB033403889FED322A00EE103A5B
:1027B00043889FED313A01EE103AB8EE411A21EE0E
:1027C000021A9FED2E4A21EE031A9FED2D5A31EE8B
:1027D000041A81EE051A40F2C466B8EE400AC2F24D
:1027E000000620EE020A356820EE030AB2EE0E2A39
:1027F000C0E901124FEADC0120EE020A90ED0F2A37
:10280000018042F2D84147F6D5026B1C90ED114A87
:10281000C0F20611C2F2E96290ED103A20EE020A0F
:1028200003FB0211336090ED125A30EE040A48F6B1
:10283000361380ED0D0A21EE030A4FEAF101C0F2D2
:10284000410330EE050AE208994280ED0E0A42800B
:1028500002D9BDE87040704740F60000C4F60000A1
:102860004FF40041FEF786FF00203060BDE8704065
:10287000704700BF00008039333353403333D3BF38
:102880009A9999BD70470000FEE7000010B58AB024
:1028900040F2C860C2F20000022100244FF0A04CB8
:1028A0004FF480320123C16108210994CDE9074426
:1028B000CDE90544CDE90344CDE90144437680F8F0
:1028C0002040C0E90A3480F83030C0E900C2C0E9D5
:1028D0000244C0E9043104764463FEF703F900289A
:1028E00018BFFDF7E7FD40F2C860C2F2000007A97B
:1028F0000794FDF765FE002818BFFDF7DBFD0120FA
:10290000CDE90100002004900721CDE9050040F247
:10291000C8600391C2F2000001A9FDF7DBFE0028A8
:1029200018BFFDF7C7FD032001900220029040F27E
:10293000C860C2F2000001A9FDF7CCFE002818BF54
:10294000FDF7B8FD0AB010BD80B540F2187046F230
:102950000041C2F20000C4F200010322002380E81B
:102960000E0000F10C014FF4C02C4FF4401E81E822
:10297000085083618383FEF747FC002808BF80BDB1
:10298000BDE88040FDF796BD80B582B041F21400ED
:10299000C4F202000168002241F0010101600068F8
:1029A000002100F00100019001980B20FFF740F892
:1029B0000B2002B0BDE88040FFF728B870B586B0A4
:1029C000002541F214000595C4F20200016840F6AA
:1029D000000441F4002101600168C4F6000401F420
:1029E0000021009100990168002241F480010160FA
:1029F00001684FF4004601F48001009100990168DC
:102A000041F400310160016801F400310091009946
:102A1000016841F48021016000684FF4004100F436
:102A20008020009000982046FEF7ACFE0120CDE902
:102A3000020501A9204601960495FEF7C5FD06B0E2
:102A400070BD000080B540F2847045F20041C2F2D2
:102A50000000C4F2000141F62B520023C0F2200214
:102A60004FF0010C80E80E10C0E90433C0E90633D2
:102A70000362FEF7DDFE002818BFFDF71BFD40F2E4
:102A80008470C2F200000021FEF788FE002818BF03
:102A9000FDF710FD40F28470C2F200000021FEF745
:102AA000A3FE002808BF80BDBDE88040FDF702BD41
:102AB00080B588B040F2D87040F200420021C2F2E6
:102AC0000000C4F2000247234FF0630C0791CDE9E8
:102AD00005110291C0E90023C0E9021C0161816176
:102AE000FFF7FCFB002818BFFDF7E4FC4FF4805013
:102AF000049040F2D870C2F2000004A9FFF78CFCE9
:102B0000002818BFFDF7D6FC00200190039040F28A
:102B1000D870C2F2000001A9FFF78EFB002818BF91
:102B2000FDF7C8FC08B080BDFEE70000FEE700002E
:102B300070B540F200440025C4F6000445F0B00032
:102B4000C0B200F08BFA102000F088FA00200026B6
:102B500000F084FA204680210122FEF713FE204671
:102B600040210122FEF70EFE204680210022FEF7C2
:102B700009FE204640210022FEF704FE782000F0E6
:102B800021F8402000F01EF8002000F01BF820463D
:102B900080210022FEF7F6FD204640210122FEF7AB
:102BA000F1FD204680210122FEF7ECFD701C46B2AB
:102BB000B6F1FF3FCEDCE8B20135072828BF70BD73
:102BC000BCE70000B0B540F20044C4F6000405467E
:102BD00000F0800220468021FEF7D4FD20464021EF
:102BE0000122FEF7CFFD204640210022FEF7CAFD5C
:102BF00005F0400220468021FEF7C4FD204640211A
:102C00000122FEF7BFFD204640210022FEF7BAFD5B
:102C100005F0200220468021FEF7B4FD2046402129
:102C20000122FEF7AFFD204640210022FEF7AAFD5B
:102C300005F0100220468021FEF7A4FD2046402129
:102C40000122FEF79FFD204640210022FEF79AFD5B
:102C500005F0080220468021FEF794FD2046402121
:102C60000122FEF78FFD204640210022FEF78AFD5B
:102C700005F0040220468021FEF784FD2046402115
:102C80000122FEF77FFD204640210022FEF77AFD5B
:102C900005F0020220468021FEF774FD2046402107
:102CA0000122FEF76FFD204640210022FEF76AFD5B
:102CB00005F0010220468021FEF764FD20464021F8
:102CC0000122FEF75FFD204640210022FEF75AFD5B
:102CD000204640210122FEF755FD204640210022DA
:102CE000BDE8B040FEF74EBDB0B586B041F214006D
:102CF000C4F20200016840F2004441F48021016006
:102D00000068C4F6000400F480200190019840207F
:102D100001900120CDE90200032001AD049020467E
:102D20002946FEF751FC8020019020462946FEF7F7
:102D30004BFC204640210122FEF724FD2046802145
:102D40000122FEF71FFDAE2000F088F9D52000F02B
:102D500085F9802000F082F9A82000F07FF93F205B
:102D600000F07CF9D32000F079F9002000F076F92A
:102D7000402000F073F9A12000F070F9C82000F0A5
:102D80006DF9DA2000F06AF9122000F067F981206D
:102D900000F064F9CF2000F061F9D92000F05EF96D
:102DA000F12000F05BF9DB2000F058F9302000F052
:102DB00055F9A42000F052F9A62000F04FF98D201B
:102DC00000F04CF9142000F049F9AF2000F046F96A
:102DD000FFF7AEFE06B0B0BDF0B581B004467E2070
:102DE00000EB440017466FF0070240F0B00002EB22
:102DF000C106C0B2F5B200F031F9280900F11005A2
:102E0000284600F02BF906F00806304600F026F9B7
:102E100040F20800C2F2000000EB07114FF600601C
:102E2000CFF6FF70085CA1F5007700F04BF97878D9
:102E300000F048F9B87800F045F9F87800F042F968
:102E4000387900F03FF9787900F03CF9B87900F072
:102E500039F9F87900F036F94FF0FF3000EB440013
:102E600040F0B000C0B200F0F9F8284600F0F6F8E3
:102E7000304600F0F3F8387A00F024F9787A00F060
:102E800021F9B87A00F01EF9F87A00F01BF9387BC6
:102E900000F018F9787B00F015F9B87B00F012F912
:102EA000F87B01B0BDE8F04000F00CB9002B08BF82
:102EB00070472DE9F04F81B01C4691468A46834603
:102EC000981E5D425E1E002742F2107800901BE0C3
:102ED0000120B9FBF0F04CF6CD41CCF6CC41A0FB83
:102EE0000112D20802EB8202A0EB420007EB0A01BA
:102EF00040F03000C2B2C9B25846FFF76DFF01374B
:102F0000A742A6F1010627D0F943A942E0D00098D4
:102F1000C01B032802D2012008E000BF26F00302F4
:102F2000012000BF043A00FB08F0FBD1214411F05E
:102F30000301CED0012903D100EB80004000C8E797
:102F40004FF47A72424302294FF0640108BF00FB3C
:102F500001F21046BDE700BF01B0BDE8F04F704779
:102F60002DE9F04F81B01C4691460F46002A82465B
:102F700004D42B22FFF730FF3CB955E02D22FFF798
:102F80002BFFC9F10009002C4ED007F1010BA01E48
:102F90006542661E002742F2107800901CE000BFD8
:102FA0000120B9FBF0F04CF6CD41CCF6CC41A0FBB2
:102FB0000112D20802EB8202A0EB42000BEB0701E8
:102FC00040F03000C2B2C9B25046FFF705FF0137EA
:102FD000A742A6F1010627D0F943A942E0D0009804
:102FE000C01B032802D2012008E000BF26F0030224
:102FF000012000BF043A00FB08F0FBD1214411F08E
:103000000301CED0012903D100EB80004000C8E7C6
:103010004FF47A72424302294FF0640108BF00FB6B
:1030200001F21046BDE700BF01B0BDE8F08F00001F
:10303000F0B581B0144612786AB10D4606460027F5
:103040007819C1B2D2B23046FFF7C6FE0137F8B2E6
:10305000225C002AF4D101B0F0BD0000B0B540F20E
:103060000044C4F600040546204680210122FEF7F4
:1030700089FB204640210122FEF784FB2046802167
:103080000022FEF77FFB204640210022FEF77AFB5C
:103090007820FFF797FD0020FFF794FD2846FFF703
:1030A00091FD204680210022FEF76CFB2046402146
:1030B0000122FEF767FB204680210122BDE8B040D7
:1030C000FEF760BBB0B540F20044C4F6000405460C
:1030D000204680210122FEF755FB20464021012297
:1030E000FEF750FB204680210022FEF74BFB2046D6
:1030F00040210022FEF746FB7820FFF763FD4020C9
:10310000FFF760FD2846FFF75DFD20468021002285
:10311000FEF738FB204640210122FEF733FB204614
:1031200080210122BDE8B040FEF72CBB70470000B3
:1031300070470000FEF70ABC4EF68850CEF2000041
:10314000016841F4700101607047000040F2D870DE
:10315000C2F20000FFF732BA40F2FF7C0268C4F20C
:10316000000C604522DD40F60003C4F200039842E3
:1031700025D043F20043C4F2010398421FD042F627
:103180000043C4F20103984219D043F2FF33C4F262
:10319000010398421DDC60452ADCB0F1804F3DD030
:1031A00040F20043C4F2000336E000BFB0F1804FAC
:1031B00005D040F20043C4F200039842E5D14B68C9
:1031C00022F070021A4343F2FF33C4F20103984223
:1031D000E1DD44F2FF33C4F20103984212DC43F212
:1031E0000043C4F20103984218D044F2000311E0F6
:1031F00040F60003C4F2000398420FD042F60043A9
:1032000008E000BF44F60003C4F20103984205D071
:1032100044F20043C4F20103984203D1CB6822F484
:1032200040721A4380B54B6922F0800E8A6843EAE7
:103230000E03D1F800C00360C262A0F18042A2F583
:103240009632830543EA9222072AC0F828C0BDE8D7
:10325000804007D8012303FA02F212F0E50F1CBFE9
:1032600009690163012141610169C90708BF70470C
:10327000016921F00101016170470000FEE70000D3
:103280009EB0FEF771FB6846002404303821CDE97A
:103290001944CDE91744FDF71DF8032014904FF4AD
:1032A00080300225CDE915040121CDE91B504FF4F2
:1032B000E010189110211D9014A81991FEF7CCFD73
:1032C00020B1EFF3108072B6FEE700BF0F20CDE90A
:1032D0000F054FF48060CDE912040FA8022111946C
:1032E000FEF7E8FC20B1EFF3108072B6FEE700BFF6
:1032F00020200090002007906846FEF7D5FB28B1FB
:10330000EFF3108072B600BFFEE700BF40F200444A
:10331000C4F60004FFF752FBFFF736FBFFF7B6FADF
:10332000FFF790FBFFF7C4FBFFF70EFBFDF770F80C
:10333000FFF7DAFC40F2D870C2F20000FFF722F883
:1033400040F2C865C2F2000528460021FDF7B8F832
:1033500040F2FC58C2F2000808F10C012846142281
:10336000FDF79AFD9FED760B40F2A8699FED798AF3
:103370009FED799A9FED79AA9FED79BA40F2187B7B
:10338000C2F2000956EC105B0FF2C41AC2F2000B35
:1033900098ED0D0A98ED0EDABDEEC01AB8EEC11A1E
:1033A00020EE0DCA30EE410A10EE100A20F0004067
:1033B00089ED04CA00F004FA2A46334600F002F907
:1033C00000F0D0F8BDEECD0AB8EEC00A3DEE400ADE
:1033D000A9F8000010EE100A20F0004000F0F0F90B
:1033E0002A46334600F0EEF800F0BCF8BDEECC0AF9
:1033F000B8EEC00A3CEE400AA9F8020010EE100A2E
:1034000020F0004000F0DCF92A46334600F0DAF8FC
:1034100000F0A8F8A9F80400012001214AA2FFF752
:1034200007FE98ED0D0A0120BDEEC00A10EE102A2D
:1034300003210323FFF794FD012007212E22FFF72C
:10344000CBFCB9F90020012008210223FFF72EFD53
:10345000022001213DA2FFF7EBFD98ED0E0A0220AC
:10346000BDEEC00A10EE102A03210323FFF778FDFA
:10347000022007212E22FFF7AFFCB9F9022002201B
:1034800008210223FFF712FD032001215246FFF716
:10349000CFFD99ED040A0320BDEEC00A10EE102AFC
:1034A00003210323FFF75CFD032007212E22FFF7F2
:1034B00093FCB9F90420032008210223FFF7F6FC4E
:1034C00098ED0D0A98ED0E2A30EE081A20EE020A49
:1034D00021EE091A32EE082A30EE080A81EE0A1AA5
:1034E00022EE0B2A20EE0B0A82EE0A2A80EE0A0A4E
:1034F0004F46BDEEC11A11EE100A27F8140FBDEEAB
:10350000C21ABDEEC00A11EE101A10EE102A798010
:10351000BA80584600213A46FCF79AFF20464021DF
:10352000FEF722F947F80C0C20468021FEF71CF923
:1035300047F8080C3220FEF733F829E700BF00BF38
:103540000000000000005940563A0000493A0000CF
:10355000503A00000000404200FF7F470000C04298
:1035600000F07F454FEA41034FEA5353A3F58063D0
:10357000D3F11E03C8BFD3F1210C0CDD4FF0004284
:1035800042EAC12242EA505232FA03FC8CEAE17C60
:10359000ACEBE1707047102BC4BF0020704703F5FF
:1035A000787CBCF1FF3F04D06FF0004282EA21003A
:1035B000704770B500F0B0F8499224800020704741
:1035C000F2E7000070B5DFF848C11CEA111E1EBF0B
:1035D0001CEA13159EEA0C0F95EA0C0F00F06F80A1
:1035E00081EA03044EEAD47EAE4421EA4C1123EA78
:1035F0004C1341F4801143F48013AEF17F7EA1FBA4
:10360000024CA0FB0365361955EB0C05A1FB034CDE
:103610004CF10003A0FB021C16EB0C06654153F1B4
:103620000003094218BF46F0010613F4007F0BD1D6
:103630004FEA03314FEA053041EA155140EA16508E
:1036400034036FF003020AE04FEAC3214FEAC520BA
:1036500041EA555140EA5650F4026FF0020202EB83
:103660002E4201EB025585EACE710AD05FEA440C86
:1036700018BF24F0004450F1000041F1000120EA9D
:10368000D47040F2FE7C624500D270BDA84214BFE7
:103690004FF080444FF04044002E08BF0024BEF19C
:1036A000806FA8BFA1F1C041BDE8704080F2828068
:1036B00001F1C04101F000414FF0000070470CEAF9
:1036C00013159EEA0C0F18BF95EA0C0F06D081EA7D
:1036D000030E4FF000000EF0004170BD00F01CF82A
:1036E0008900013E00F007B800F009B84FEA430C2A
:1036F0005FEA5C5C08D081EA030100F05BB84FEA46
:10370000410C5FEA5C5CF6D102494FF00000704763
:103710000000FF070000F87F0EF1020E2EF0030EEE
:103720005EF8046B364205D4012A43EB030515F518
:10373000001F12D8012841EB010C1CF5001F0CD80A
:103740000ED14FEAD17C0CEB4C0C0CF1020C15F5B0
:10375000001F08BF4CEBD37C04E04FF0080C01E0E5
:103760004FEAD37C0CEB4C0526FA05F606F007066B
:10377000B6F1040C06D20EEB860CBDE870404CF09E
:10378000010C6047DFE80CF0090B02024FF000412A
:10379000A1F500214FF0000070BD19461046012828
:1037A00051EB010418BFD4F5001484BF002001F0D0
:1037B000004170BD0808A0F500114FEA31017047C3
:1037C00043004FEAD30C4FEA3C0C43401FBF400775
:1037D0000CF1605113F0FE4F70471CF0006F03D1E5
:1037E0000CF00041002070470CF0004343EA507099
:1037F00040EACC0010B500F00EF800BF00000092C7
:103800004FEA0001FFF7D6BF4FF00041A1F50021BC
:103810004FF0000070470EF1020E2EF0030E5EF81E
:10382000044B244204D44FEA4102B2F17F4F11D835
:103830004FEA4003B3F17F4F0CD80ED14FEAD07C52
:103840000CEB4C0C0CF1020CB2F17F4F08BF4CEBAF
:10385000D17C04E04FF0080C01E04FEAD17C0CEB86
:103860004C0324FA03F404F00704B4F1040C06D268
:103870000EEB840CBDE810404CF0010C6047DFE813
:103880000CF0070802024FF00040A0F5800010BDC8
:103890000846420018BFD2F1807288BF00F0004095
:1038A00010BDF1EE100A4FF6FF71C0F2C03120EAF0
:1038B000010040F04070E1EE100A70470000000087
:1038C00000000000010203040607080902030405C2
:1038D000060708090A0B0C0D0E0F10100102030455
:1038E00005060708090A0B0C0D0E0F101039000809
:1038F0000000002048060000EC010008A03C000881
:1039000048060020E00700004C020008000000000C
:10391000320102161072F84333301C100C0603916A
:103920002C40C07803112C043F0403212D7088FC27
:103930000829261820FF211E14F008F033E0184D46
:10394000211C031E11338870000C101E2123241922
:1039500027211010160E45E01804022507182040F4
:103960003D020418E0692C20180707174080F080FA
:1039700040403F0202010F01022842F01D010101F7
:103980001F04912B80B066B1191D2901913A30CEE8
:10399000492C146018043C6018061D1EE01008082D
:1039A00010721F0F102020100FF05310F836202037
:1039B0003F20203C700808C21E3028242221441ECB
:1039C0003008888848082E1820202011CC3BC020C1
:1039D0003227070424243F241AF8202308084B190F
:1039E000212036E0108888184B0F11101E38080867
:1039F000C8382021523F1A702E29608F1C222121A5
:103A0000221C90111D31222211901961CAC0C26A74
:103A100080C659081C4020105017010204081020CD
:103A20004A4001114A04012119152A403219251B67
:103A30000402F21B7048D13AF0501A360F1EC03003
:103A4000C828E87028080718272423140B6F2A3881
:103A50007E280D203C23020227382008F888889F02
:103A60004B203FF01BC0303F1B083830191019782D
:103A70001B08F80F194039201B100F103E8888E8EA
:103A8000081010AC23201810112A035E2940223898
:103A900029402C221E024019A41809F808203F21B1
:103AA000010121252A0852298129424149112EC0AC
:103AB0008080807F0E2FF888C0281808501C0126AF
:103AC000382F2940292F29801B20301012F81AF88E
:103AD0001413203F190229204B30C0601A207412A1
:103AE0003F4BE010B06B0F10B029D01AF0301980A6
:103AF000220179203F18242438504FC04C88887008
:103B0000C0140C30204B7088C11738202121221C92
:103B10003A189F4A188239A049D0112A1F90121FC3
:103B2000240878881BC838151C07380E60191A1A23
:103B3000F8201114033C0714073C034814081868C4
:103B4000808068180820302C03032C30200838C8E7
:103B50002F5950298F29102F203826212020681115
:103B600045FE020202257F4040401A0CE0611C0124
:103B700006380B191D42FE191D527F1A041202113C
:103B8000045A80011930D91D391621180819242228
:103B900022223F20AB390F115F3F112020110E214F
:103BA000311A0E104B2011104B88F8102A10B359FF
:103BB000401A1F3F2B22130F16F0888888181A20EE
:103BC000D029D1497A21176B949494936039601964
:103BD0000F4C203F21F354809898793059121AC025
:103BE0002719D1193039311F203F24022D30212AC5
:103BF0000812893069D7294B2903190BC96079A0AC
:103C000019BF2B201FDD390F9C80FFA1E01912295D
:103C1000D03BA0FF0C3950194112208A01C01B3340
:103C200024012A190F3AE0413952290F39234960FA
:103C30003C103F202C29053F010E30080601702959
:103C40001038080F300C030C300F2C49A14E312EC8
:103C50000E31200C29621D818E70183059D12157E8
:103C600021302C22213055807C0202443F4040729A
:103C7000FF39083C02027C8F5440403F9008060107
:103C80000102020404033D127A001100E09C813F0E
:103C900066F7943F014D043D2506A1BE00000000DB
:040000050800018965
:00000001FF
